:100000000C94A4000C94CC000C94CC000C94CC0068
:100010000C94CC000C94CC000C94CC000C94CC0030
:100020000C94CC000C94CC000C94CC000C94CC0020
:100030000C94CC000C94CC000C94CC000C94CC0010
:100040000C941D050C94CC000C94EB040C94C5048A
:100050000C94CC000C94CC000C94CC000C94CC00F0
:100060000C94CC000C94CC0007634236B79BD8A705
:100070001A39685618AEBAAB558C1D3CB7CC5763CD
:10008000BD6DEDFD753EF6177231BF000000803F7B
:1000900008000000BE922449123EABAAAA2ABECD97
:1000A000CCCC4C3E00000080BEABAAAAAA3E000009
:1000B0000000BF000000803F000000000008417801
:1000C000D3BB4387D1133D190E3CC3BD4282AD2B38
:1000D0003E68EC8276BED98FE1A93E4C80EFFFBE30
:1000E00001C4FF7F3F00000000000000000024006A
:1000F00027002A000000000023002600290000003D
:1001000000080002010000030407000000000000D6
:1001100000000102040810204080010204081020A1
:1001200001020408102000000000250028002B0018
:10013000040404040404040402020202020203038D
:10014000030303036705CA0811241FBECFEFD8E0DD
:10015000DEBFCDBF11E0A0E0B1E0ECE3FCE102C006
:1001600005900D92AE33B107D9F722E0AEE3B1E0CE
:1001700001C01D92A630B207E1F710E0C3EAD0E05B
:1001800004C02197FE010E94E60CC23AD107C9F7CC
:100190000E9408060C94110E0C9400008F929F92FE
:1001A000AF92BF92CF92DF92EF92FF92CF932091C6
:1001B000EE013091EF0182179307E8F54B01AA2475
:1001C000BB24C82DC52ED62EE72EFF24BC2DA42F70
:1001D0002091F401222361F0829E40011124C92D57
:1001E0002C9D60011124BD2D249FF0011124AF2FFF
:1001F000E091FA01E090F501F090F6013091F701FD
:10020000E31323C09C01220F331F820F931F8E0D17
:100210009F1DE091F701E80FF92FF11DC083E091D8
:10022000F801E80FF92FF11DB0832091F901820F39
:10023000911DFC01A083CF91FF90EF90DF90CF90B4
:10024000BF90AF909F908F900895880F991F880F4F
:10025000991F8E0D9F1D472F55276627772722232D
:1002600049F030E0249F7001259FF00C349FF00C82
:1002700011244F2DE80FF92FF11D4083CACF0F93A2
:100280001F93CF93DF93681718F4982F862F692F49
:10029000C82FD0E0062F10E00C171D0744F040E0F7
:1002A00050E0BA01CE010E94CE002196F5CFDF9139
:1002B000CF911F910F91089585E480937C008091E8
:1002C0007A00806480937A0080917A0086FDFCCF6A
:1002D00080917800909179000895FC01538D448DB0
:1002E000252F30E0842F90E0821B930B541710F0E1
:1002F000CF96089501970895FC01918D828D9817EE
:1003000061F0A28DAE0FBF2FB11D5D968C91928DC5
:100310009F5F9F73928F90E008958FEF9FEF0895F6
:10032000FC01918D828D981731F0828DE80FF11DBF
:10033000858D90E008958FEF9FEF0895FC01918DDA
:10034000228D892F90E0805C9F4F821B91098F73D3
:1003500099270895FC01A48DA80FB92FB11DA35AA8
:10036000BF4F2C91848D90E001968F739927848FD5
:10037000A689B7892C93A089B1898C9183708064F8
:100380008C93938D848D981306C00288F389E02D99
:1003900080818F7D80830895EF92FF920F931F934A
:1003A000CF93DF93EC0181E0888F9B8D8C8D981328
:1003B0001AC0E889F989808185FF15C09FB7F89434
:1003C000EE89FF896083E889F98980818370806480
:1003D00080839FBF81E090E0DF91CF911F910F91CB
:1003E000FF90EF900895F62E0B8D10E00F5F1F4FDA
:1003F0000F731127E02E8C8D8E110CC00FB607FCE9
:10040000FACFE889F989808185FFF5CFCE010E9476
:10041000AA01F1CFEB8DEC0FFD2FF11DE35AFF4F39
:10042000F0829FB7F8940B8FEA89FB898081806204
:10043000CFCFCF93DF93EC01888D8823B9F0AA89C1
:10044000BB89E889F9898C9185FD03C0808186FD8F
:100450000DC00FB607FCF7CF8C9185FFF2CF8081DE
:1004600085FFEDCFCE010E94AA01E9CFDF91CF91A8
:1004700008958FE491E00E949E0121E0892B09F408
:1004800020E0822F089580E090E0892B29F00E94DF
:10049000390281110C9400000895AF92BF92CF925F
:1004A000DF92EF92FF920F931F93CF93DF936C0134
:1004B0007B018B01040F151FEB015E01AE18BF0815
:1004C000C017D10759F06991D601ED91FC910190C7
:1004D000F081E02DC6010995892B79F7C501DF91DF
:1004E000CF911F910F91FF90EF90DF90CF90BF9031
:1004F000AF900895833081F028F4813099F08230F4
:10050000A9F008958730A9F08830C9F08430B1F49B
:10051000809180008F7D03C0809180008F778093D1
:100520008000089584B58F7784BD089584B58F7D4C
:10053000FBCF8091B0008F778093B00008958091B9
:10054000B0008F7DF9CFCF93DF93282F30E0F901F2
:10055000E250FF4F8491F901EE5EFE4FD491F90114
:10056000E05DFE4FC491CC2391F081110E947A028C
:10057000EC2FF0E0EE0FFF1FEA5DFE4FA591B49166
:100580008FB7F894EC91D095DE23DC938FBFDF9189
:10059000CF910895CF93DF9390E0FC01EE5EFE4F84
:1005A0002491805D9E4FFC0184918823D1F090E0DE
:1005B000880F991FFC01E651FF4FA591B491FC01F2
:1005C000EA5DFE4FC591D49161110EC09FB7F894BA
:1005D0008C91E22FE0958E238C932881E223E8838F
:1005E0009FBFDF91CF9108958FB7F894EC91E22BE4
:1005F000EC938FBFF6CF3FB7F89480913F01909175
:100600004001A0914101B091420126B5A89B05C0CF
:100610002F3F19F00196A11DB11D3FBFBA2FA92F81
:10062000982F8827BC01CD01620F711D811D911D7E
:1006300042E0660F771F881F991F4A95D1F70895EA
:100640000F931F93CF93DF93CDB7DEB729970FB6E4
:10065000F894DEBF0FBECDBF8091F5019091F601F9
:10066000892B09F47CC00E94FB020091FB011091D0
:10067000FC012091FD013091FE0160177107820796
:10068000930740F46093FB017093FC018093FD019C
:100690009093FE010091FB011091FC012091FD015E
:1006A0003091FE01601B710B820B930B6C32714019
:1006B00081059105C0F2F8948091F0019091F101CB
:1006C0009A838983E091F501F091F601DF0111969B
:1006D000808189879091EC01E091FF01F091000207
:1006E00080910102992309F445C09081982B988745
:1006F0009081809589238F838F818C8388E08B8381
:1007000058856F8149853B812C8189819A815083ED
:1007100047FD252F3A952083262F39F0441F00C02E
:1007200000006083000000C0F2CF38E04D9160838C
:100730000000019761F7F0930002E093FF01498701
:100740003B832C839A83898378940E94FB02609375
:10075000FB017093FC018093FD019093FE012996AB
:100760000FB6F894DEBF0FBECDBFDF91CF911F91C2
:100770000F9108959081982B988790818095892377
:100780008F838F818E8388E08D8358856F81498523
:100790003D812E8189819A81508347FD252F00C09C
:1007A00000C0208300C000C000C000C000C0608343
:1007B0000000262F3A9541F0441F000000C000C001
:1007C00000C000C000C0E8CF38E04D9100C0608399
:1007D00000C0019709F7F0930002E093FF014987F9
:1007E0003D832E83AFCF853588F4982F990F990FCD
:1007F000282F291B2150682F660F680F70E090E0AA
:1008000080E0CB0177276627722B08958A3A98F407
:100810002BEA280F822F880F880F622F681B6150E8
:1008200070E090E080E0CB0177276627322F330F0E
:10083000230F622B089526E5280F622F660F620FA3
:1008400070E090E080E0982F872F762F6627322F78
:10085000330F330F231B2150ECCF7F928F929F9247
:10086000AF92BF92CF92DF92EF92FF920F931F93BE
:10087000CF93DF938B01D82FC92F69017A0120E034
:1008800030E04FEA53E4C701B6010E94970987FDA3
:1008900051C020E030EC4FE754E4C701B6010E949C
:1008A000EF0A18160CF44DC020E030E0A901B801A1
:1008B0008D2F9C2F0E94970987FF4BC098014D2FC9
:1008C0005C2F60E070E0CB010E942A09762E872E13
:1008D000982EA92EB12C20E030E04FEA53E4C70156
:1008E000B6010E942A0920E030E448E254E40E9464
:1008F0009C092CE636E841E25FE30E94610B272D5C
:10090000382D492D5A2D0E94F40AB11029C09801A2
:100910004D2F5C2F0E942B09DF91CF911F910F91DA
:10092000FF90EF90DF90CF90BF90AF909F908F900F
:100930007F900895C12CD12C9FEAE92E93E4F92EE3
:10094000B3CFC12C80ECD82E8FE7E82E84E4F82EAC
:10095000ABCF702E812E9D2EAC2EBB24B394BBCF7B
:100960009B01AC01B8018D2F9C2F0E942A09D4CF86
:10097000FC0101900020E9F73197AF01481B590BAA
:10098000BC018FE491E00C944D021F920F920FB6C0
:100990000F9211242F933F934F935F936F937F9305
:1009A0008F939F93AF93BF93EF93FF938FE491E067
:1009B0000E94AA01FF91EF91BF91AF919F918F91FA
:1009C0007F916F915F914F913F912F910F900FBE4B
:1009D0000F901F9018951F920F920FB60F9211242F
:1009E0002F938F939F93EF93FF93E0915F01F0918B
:1009F00060018081E0916501F091660182FD1BC07C
:100A00009081809168018F5F8F73209169018217B7
:100A100041F0E0916801F0E0E15BFE4F958F80933B
:100A20006801FF91EF919F918F912F910F900FBED1
:100A30000F901F9018958081F4CF1F920F920FB6E0
:100A40000F9211242F933F938F939F93AF93BF9354
:100A50008091430190914401A0914501B0914601DC
:100A600030913E0123E0230F2D3758F50196A11D4B
:100A7000B11D20933E018093430190934401A093C4
:100A80004501B093460180913F0190914001A091B2
:100A90004101B09142010196A11DB11D80933F011A
:100AA00090934001A0934101B0934201BF91AF9157
:100AB0009F918F913F912F910F900FBE0F901F909C
:100AC000189526E8230F0296A11DB11DD2CF1092D2
:100AD00052011092510188EE93E0A0E0B0E08093C3
:100AE000530190935401A0935501B09356018BE0AC
:100AF00091E09093500180934F0185EC90E09093AA
:100B00005C0180935B0184EC90E090935E018093A4
:100B10005D0180EC90E09093600180935F0181EC37
:100B200090E0909362018093610182EC90E0909359
:100B300064018093630186EC90E09093660180935A
:100B40006501109268011092690110926A01109279
:100B50006B011092ED011092F4011092FB011092C2
:100B6000FC011092FD011092FE0181E08093FA01D8
:100B70008093F7011092F80192E09093F90180932D
:100B8000EC0184EB90E09093F1018093F0010E94DE
:100B9000EC0C9093F6018093F501009781F124EB22
:100BA000FC0111922A95E9F78CE390E09093EF0114
:100BB0008093EE0186E090E09093F3018093F20140
:100BC0008091ED01882339F061E086E00E94CA023D
:100BD00086E00E94A302E6E3F1E0E491F0E0EE0F8C
:100BE000FF1FEA5DFE4F85919491909300028093E0
:100BF000FF01E8E1F1E0E491E09301020895109231
:100C0000F1011092F0011092EF011092EE01D2CF9B
:100C1000CF93DF93CDB7DEB7A1970FB6F894DEBFC1
:100C20000FBECDBF789484B5826084BD84B58160E9
:100C300084BD85B5826085BD85B5816085BD8091A7
:100C40006E00816080936E0010928100809181001F
:100C50008260809381008091810081608093810017
:100C6000809180008160809380008091B1008460D9
:100C70008093B1008091B00081608093B00080913A
:100C80007A00846080937A0080917A0082608093F9
:100C90007A0080917A00816080937A0080917A0056
:100CA000806880937A001092C1008091F201909147
:100CB000F30197FD07C061E00E94CA028091F20132
:100CC0000E94A30281E08093ED010E942003222470
:100CD0002394312C70E0C72E70E0D72EEEEFF0E0B9
:100CE0008491E2E1F1E01491E0E3F1E0049100236A
:100CF00009F494C081110E947A02E02FF0E0EE0F17
:100D0000FF1FEC50FF4FA591B4918C91182331E057
:100D100020E009F430E0832F922F90934E018093CE
:100D20004D0120914B0130914C012817390709F4EE
:100D300057C0019709F08DC08091490190914A01F7
:100D4000019690934A018093490189E191E00E94C4
:100D5000B8048CE191E00E94B8048FE191E00E9418
:100D6000B8048090490190904A01092C000CAA080F
:100D7000BB08B7FE56C06DE28FE491E00E94CC0143
:100D800022273327A901281939094A095B0919A221
:100D90008E010F5D1F4FCA01B9012AE030E040E02B
:100DA00050E00E94F908605DF80162938F012115FF
:100DB00031054105510579F70115110519F0C801F3
:100DC0000E94B8048CE191E00E94B804809149012E
:100DD00090914A01039721F430924A0120924901EF
:100DE00080914D0190914E0190934C0180934B0165
:100DF0008091490190914A018130910599F10297C2
:100E000009F4E7C0C114D10409F468CF0E94390283
:100E1000882309F45FCF0E9400005CCF90E080E05F
:100E20007CCFA501940119A28E010F5D1F4FCA014D
:100E3000B9012AE030E040E050E00E94F908605D2E
:100E4000F80162938F01211531054105510579F7AC
:100E5000B3CF8AE391E00E94B8048CE191E00E9454
:100E6000B804BECF8FB7F8948090430190904401AE
:100E7000A0904501B09046018FBFEE24EA9453E064
:100E8000F52E10E000E02FB7F89480914301909187
:100E90004401A0914501B09146012FBF88199909DD
:100EA000AA09BB090A97A105B10580F40E945C015B
:100EB0008115F4E09F0738F70817190728F08E15F9
:100EC0009F0508F77C01DFCF8C01DDCF0E191F09CC
:100ED000B80190E080E00E943D0A2B013C01812C8A
:100EE000912C5401F12CE12C0091EE011091EF01B5
:100EF0009801215031092E153F05C0F050E040E027
:100F0000C501B4010E94DA088EE1820F0E94F3034A
:100F1000AB01BC01C7010E94CE002FEFE21AF20A1A
:100F200088E7880E911CA11CB11CDECFB80190E0AF
:100F300080E00E943D0AA30192010E942D040E94BC
:100F40000E0ACB01209100012617170629F020F088
:100F500060930001109248010817190730F0E02F44
:100F6000E61B6E2F802F0E943F014091EE015091B1
:100F7000EF01F09000018A010F1911099801A8E70B
:100F8000B0E00E941B09415051099A0150E040E035
:100F90000E94DA088EE1820F0E94F303AB01BC01CC
:100FA000C80101970E94CE000E9420038091480151
:100FB000893108F4EBC0809147018F5F809347012E
:100FC000843008F41FCFF394F0920001109247018F
:100FD00019CF8FB7F8948090430190904401A0906E
:100FE0004501B09046018FBFEE24EA9443E0F42E11
:100FF00010E000E02FB7F8948091430190914401F4
:10100000A0914501B09146012FBF88199909AA09FD
:10101000BB090A97A105B10580F40E945C01811506
:10102000F4E09F0738F70817190728F08E159F0579
:1010300008F77C01DFCF8C01DDCF0E191F09B80145
:1010400090E080E00E943D0A2B013C01812C912C14
:101050005401F12CE12C0091EE011091EF01169555
:101060000795980150E040E00E151F0580F1C5017D
:10107000B4010E94DA088EE1820F0E94F303AB01F3
:10108000BC01C8018E199F090E94CE000091EE019B
:101090001091EF0116950795980150E040E0C501C9
:1010A000B4010E94DA088EE1820F0E94F303AB01C3
:1010B000BC01C701800F911F0E94CE002FEFE21AE2
:1010C000F20A88E7880E911CA11CB11CC4CFCA018A
:1010D000B8010E943D0AA30192010E942D040E94C2
:1010E0000E0AF62E862F972F209100012817190639
:1010F00029F020F0F092000110924801081719071A
:1011000050F06F2D80E00E943F018091EE01682F2A
:101110008F190E943F014091EE015091EF015695C9
:101120004795F09000010F2D10E05A01A01AB10A66
:101130009501A8E7B0E00E941B092B013C019A0130
:1011400050E040E00E94DA088EE1820F0E94F30333
:10115000AB01BC01C80101960E94CE000091EE01D6
:101160001091EF0116950795980150E040E0C301FA
:10117000B2010E94DA088EE1820F0E94F303AB01F4
:10118000BC01C80101978A0D9B1D0CCF8F5F809316
:10119000480138CE8091F5019091F6010E94880DAA
:1011A0008091F2019091F30197FD03C060E00C94EF
:1011B000CA020895052E97FB1EF400940E94F108C0
:1011C00057FD07D00E94F90807FC03D04EF40C9499
:1011D000F10850954095309521953F4F4F4F5F4F07
:1011E000089590958095709561957F4F8F4F9F4F93
:1011F0000895A1E21A2EAA1BBB1BFD010DC0AA1F58
:10120000BB1FEE1FFF1FA217B307E407F50720F06F
:10121000A21BB30BE40BF50B661F771F881F991FEA
:101220001A9469F760957095809590959B01AC0133
:10123000BD01CF010895A29FB001B39FC001A39F3C
:10124000700D811D1124911DB29F700D811D1124FF
:10125000911D08955058BB27AA270E9442090C945B
:10126000B50A0E94A70A38F00E94AE0A20F039F4AD
:101270009F3F19F426F40C94A40A0EF4E095E7FBC2
:101280000C949E0AE92F0E94C60A58F3BA17620707
:1012900073078407950720F079F4A6F50C94E80A03
:1012A0000EF4E0950B2EBA2FA02D0B01B901900181
:1012B0000C01CA01A0011124FF27591B99F0593FC5
:1012C00050F4503E68F11A16F040A22F232F342F0D
:1012D0004427585FF3CF469537952795A795F0405B
:1012E0005395C9F77EF41F16BA0B620B730B840B70
:1012F000BAF09150A1F0FF0FBB1F661F771F881F28
:10130000C2F70EC0BA0F621F731F841F48F487957F
:1013100077956795B795F7959E3F08F0B0CF939571
:10132000880F08F09927EE0F9795879508950E94EA
:101330007A0A08F481E008950E94B0090C94B50A75
:101340000E94AE0A58F00E94A70A40F029F45F3FBD
:1013500029F00C949E0A51110C94E90A0C94A40AE9
:101360000E94C60A68F39923B1F3552391F3951BA4
:10137000550BBB27AA2762177307840738F09F5FB6
:101380005F4F220F331F441FAA1FA9F335D00E2E23
:101390003AF0E0E832D091505040E695001CCAF790
:1013A0002BD0FE2F29D0660F771F881FBB1F261753
:1013B00037074807AB07B0E809F0BB0B802DBF012A
:1013C000FF2793585F4F3AF09E3F510578F00C94F9
:1013D0009E0A0C94E90A5F3FE4F3983ED4F38695A5
:1013E00077956795B795F7959F5FC9F7880F911D1A
:1013F0009695879597F90895E1E0660F771F881F06
:10140000BB1F621773078407BA0720F0621B730BB8
:10141000840BBA0BEE1F88F7E09508950E94CE0A60
:1014200088F09F5798F0B92F9927B751B0F0E1F0A5
:10143000660F771F881F991F1AF0BA95C9F714C055
:10144000B13091F00E94E80AB1E008950C94E80AE6
:10145000672F782F8827B85F39F0B93FCCF386958E
:1014600077956795B395D9F73EF4909580957095EB
:1014700061957F4F8F4F9F4F0895E89409C097FB68
:101480003EF490958095709561957F4F8F4F9F4F5B
:101490009923A9F0F92F96E9BB279395F69587959F
:1014A00077956795B795F111F8CFFAF4BB0F11F462
:1014B00060FF1BC06F5F7F4F8F4F9F4F16C0882309
:1014C00011F096E911C0772321F09EE8872F762F3F
:1014D00005C0662371F096E8862F70E060E02AF080
:1014E0009A95660F771F881FDAF7880F969587956C
:1014F00097F90895990F0008550FAA0BE0E8FEEF41
:1015000016161706E807F907C0F012161306E407C7
:10151000F50798F0621B730B840B950B39F40A26C0
:1015200061F0232B242B252B21F408950A2609F49E
:10153000A140A6958FEF811D811D089597F99F67A2
:1015400080E870E060E008959FEF80EC089500244B
:101550000A941616170618060906089500240A9418
:1015600012161306140605060895092E0394000C9E
:1015700011F4882352F0BB0F40F4BF2B11F460FF2D
:1015800004C06F5F7F4F8F4F9F4F089557FD905856
:10159000440F551F59F05F3F71F04795880F97FB37
:1015A000991F61F09F3F79F08795089512161306F1
:1015B0001406551FF2CF4695F1DF08C01616170620
:1015C0001806991FF1CF8695710561050894089555
:1015D000E894BB2766277727CB0197F908950E94E7
:1015E0007A0A08F48FEF08950E94070B0C94B50A4D
:1015F0000E94A70A38F00E94AE0A20F0952311F04D
:101600000C949E0A0C94A40A11240C94E90A0E94DA
:10161000C60A70F3959FC1F3950F50E0551F629F66
:10162000F001729FBB27F00DB11D639FAA27F00D3B
:10163000B11DAA1F649F6627B00DA11D661F829F62
:101640002227B00DA11D621F739FB00DA11D621F47
:10165000839FA00D611D221F749F3327A00D611D64
:10166000231F849F600D211D822F762F6A2F112446
:101670009F5750409AF0F1F088234AF0EE0FFF1F79
:10168000BB1F661F771F881F91505040A9F79E3FD0
:10169000510580F00C949E0A0C94E90A5F3FE4F334
:1016A000983ED4F3869577956795B795F795E79526
:1016B0009F5FC1F7FE2B880F911D9695879597F92F
:1016C0000895FA01EE0FFF1F309621053105A1F1B3
:1016D0006115710561F48038BFE39B0749F1689497
:1016E0009038810561F08038BFEF9B0741F0992366
:1016F0004AF5FF3FE1053105210519F1E894089409
:10170000E795D901AA2329F4AB2FBE2FF85FD0F3B8
:1017100010C0FF5F70F4A695E0F7F73950F019F0AC
:10172000FF3A38F49F779F930DD00F9007FC9058A5
:10173000089546F00C94A40A60E070E080E89FE30E
:1017400008954FE79F775F934F933F932F930E94A6
:101750005C0C2F913F914F915F910E94F40A0C9481
:10176000B90B29F416F00C949E0A0C94E80A0C9418
:10177000A40A0E94CE0AA8F39638A0F707F80F92A1
:10178000E8942BE33AEA48EB5FE70E940A0B0F92DA
:101790000F920F924DB75EB70F920E94A40CE8E62D
:1017A000F0E00E94EB0B4F915F91EF91FF91E59577
:1017B000EE1FFF1F49F0FE57E0684427EE0F441F5D
:1017C000FA95E1F74195550B0E941E0C0F9007FE0C
:1017D0000C94120C0895DF93CF931F930F93FF92F5
:1017E000EF92DF927B018C01689406C0DA2EEF0144
:1017F0000E94070BFE01E894A59125913591459132
:101800005591A6F3EF010E944209FE019701A8013C
:10181000DA9469F7DF90EF90FF900F911F91CF91CD
:10182000DF9108959B01AC0160E070E080E89FE3E8
:101830000C949C090C949E0A0C94D80C0E94CE0A1D
:10184000D8F39923C9F3940F511DA3F3915050403D
:1018500094F059F0882332F0660F771F881F91505B
:101860005040C1F79E3F51052CF7880F911D96956A
:10187000879597F908955F3FACF0983E9CF0BB27A1
:10188000869577956795B79508F4B1609395C1F7FC
:10189000BB0F58F711F460FFE8CF6F5F7F4F8F4F9A
:1018A0009F4FE3CF0C94E90A16F00C94D80C0C94DB
:1018B000A40A68940C949E0A0E94CE0AA8F3992365
:1018C000C1F3AEF3DF93CF931F930F93FF92C92F12
:1018D000DD2788232AF02197660F771F881FDAF704
:1018E00020E030E040E85FEB9FE3883920F0803E65
:1018F00038F021968F770E942B09E0E9F0E004C0D0
:101900000E942B09EDEBF0E00E94EB0B8B01BE0176
:10191000EC01FB2E6F5771097595771F880B990B9A
:101920000E943F0A28E132E741E35FE30E94070B90
:10193000AF2D9801AE01FF900F911F91CF91DF91D4
:101940000E9442090C94B50AFA01DC01AA0FBB1FE0
:101950009B01AC01BF5728F4222733274427507836
:1019600020C0B75190F4AB2F0024469537952795AA
:10197000011CA395D2F3002071F0220F331F441FE6
:10198000B395DAF30ED00C942A0961307105A0E802
:101990008A07B94630F49B01AC0166277727882770
:1019A0009078309621F020833183428353830895C9
:1019B0009F3F31F0915020F4879577956795B795C3
:1019C000880F911D9695879597F90895EE0FFF1F43
:1019D0000590F491E02D09940F931F93CF93DF931B
:1019E0008230910510F482E090E0E0910402F091E1
:1019F000050230E020E0B0E0A0E0309799F4211536
:101A0000310509F44AC0281B390B24303105D8F5BB
:101A10008A819B816115710589F1FB019383828322
:101A2000FE0111C04081518102811381481759077D
:101A3000E0F04817590799F4109761F012960C934B
:101A4000129713961C933296CF01DF91CF911F917D
:101A50000F9108950093040210930502F4CF21150D
:101A6000310551F04217530738F0A901DB019A0103
:101A7000BD01DF01F801C1CFEF01F9CF909305025D
:101A800080930402CDCFFE01E20FF31F8193919367
:101A90002250310939832883D7CF20910202309117
:101AA0000302232B41F42091030130910401309370
:101AB00003022093020220910101309102012115BD
:101AC000310541F42DB73EB7409105015091060113
:101AD000241B350BE0910202F0910302E217F30799
:101AE000A0F42E1B3F0B2817390778F0AC014E5F8E
:101AF0005F4F2417350748F04E0F5F1F50930302C6
:101B000040930202819391939FCFF0E0E0E09CCF5D
:101B1000CF93DF930097E9F0FC0132971382128292
:101B2000A0910402B0910502ED0130E020E0109791
:101B3000A1F420813181820F931F20910202309104
:101B400003022817390709F061C0F0930302E093FC
:101B50000202DF91CF910895EA01CE17DF07E8F581
:101B60004A815B819E0141155105B1F7E901FB8373
:101B7000EA8349915991C40FD51FEC17FD0761F411
:101B8000808191810296840F951FE9019983888352
:101B9000828193819B838A83F0E0E0E012968D91AD
:101BA0009C9113970097B9F52D913C911197CD0118
:101BB0000296820F931F2091020230910302281790
:101BC000390739F6309751F5109205021092040248
:101BD000B0930302A0930202BCCFD383C28340819F
:101BE0005181840F951FC817D90761F44E5F5F4F6D
:101BF00088819981480F591F518340838A819B8135
:101C0000938382832115310509F0B0CFF09305024B
:101C1000E09304029ECFFD01DC01C0CF138212824B
:101C2000D7CF10E0C3EAD0E004C0FE010E94E60C6A
:0C1C30002196C43AD107C9F7F894FFCF01
:101C3C001000000602800000000000CC014D026D77
:101C4C000119029E017C0190016F6E000D0A006E5D
:101C5C00756D626572206F6620627574746F6E208C
:0E1C6C007075736865733A2020006F6666001D
:00000001FF
